{
  "_format": "hh-sol-artifact-1",
  "contractName": "Bank",
  "sourceName": "contracts/Bank.sol",
  "abi": [
    {
      "inputs": [],
      "name": "deposit",
      "outputs": [],
      "stateMutability": "payable",
      "type": "function"
    },
    {
      "inputs": [],
      "name": "getCurrentBalance",
      "outputs": [
        {
          "internalType": "uint256",
          "name": "",
          "type": "uint256"
        }
      ],
      "stateMutability": "view",
      "type": "function"
    },
    {
      "inputs": [],
      "name": "withdraw",
      "outputs": [],
      "stateMutability": "nonpayable",
      "type": "function"
    }
  ],
  "bytecode": "0x608060405234801561001057600080fd5b506101f3806100206000396000f3fe6080604052600436106100345760003560e01c80633ccfd60b14610039578063a574971014610050578063d0e30db014610070575b600080fd5b34801561004557600080fd5b5061004e610078565b005b34801561005c57600080fd5b504760405190815260200160405180910390f35b61004e610170565b33600090815260208190526040902054806100cf5760405162461bcd60e51b8152602060048201526012602482015271757365722068617320302062616c616e636560701b60448201526064015b60405180910390fd5b604051600090339083908381818185875af1925050503d8060008114610111576040519150601f19603f3d011682016040523d82523d6000602084013e610116565b606091505b505090508061015c5760405162461bcd60e51b815260206004820152601260248201527108cc2d2d8cac840e8de40e6cadcc8408aa8960731b60448201526064016100c6565b505033600090815260208190526040812055565b336000908152602081905260408120805434929061018f908490610196565b9091555050565b808201808211156101b757634e487b7160e01b600052601160045260246000fd5b9291505056fea2646970667358221220ddccec8261e9e4e589762f507fabf46d5a37182f8c08d613a85459e5de40f6cb64736f6c63430008120033",
  "linkReferences": {},
  "deployedLinkReferences": {}
}