{
  "_format": "hh-sol-artifact-1",
  "contractName": "AttackBank",
  "sourceName": "contracts/AttackBank.sol",
  "abi": [
    {
      "inputs": [
        {
          "internalType": "address",
          "name": "_bank",
          "type": "address"
        }
      ],
      "stateMutability": "nonpayable",
      "type": "constructor"
    },
    {
      "inputs": [],
      "name": "MINIMUM_STEP",
      "outputs": [
        {
          "internalType": "uint256",
          "name": "",
          "type": "uint256"
        }
      ],
      "stateMutability": "view",
      "type": "function"
    },
    {
      "inputs": [],
      "name": "attack",
      "outputs": [],
      "stateMutability": "payable",
      "type": "function"
    },
    {
      "inputs": [],
      "name": "bank",
      "outputs": [
        {
          "internalType": "contract Bank",
          "name": "",
          "type": "address"
        }
      ],
      "stateMutability": "view",
      "type": "function"
    },
    {
      "inputs": [
        {
          "internalType": "uint256",
          "name": "_newStep",
          "type": "uint256"
        }
      ],
      "name": "setMinimumStep",
      "outputs": [],
      "stateMutability": "nonpayable",
      "type": "function"
    },
    {
      "inputs": [
        {
          "internalType": "address",
          "name": "_bank",
          "type": "address"
        }
      ],
      "name": "setNewBank",
      "outputs": [],
      "stateMutability": "nonpayable",
      "type": "function"
    },
    {
      "inputs": [],
      "name": "withdraw",
      "outputs": [],
      "stateMutability": "nonpayable",
      "type": "function"
    },
    {
      "stateMutability": "payable",
      "type": "receive"
    }
  ],
  "bytecode": "0x6080604052662386f26fc1000060005534801561001b57600080fd5b5060405161045438038061045483398101604081905261003a9161005f565b600180546001600160a01b0319166001600160a01b039290921691909117905561008f565b60006020828403121561007157600080fd5b81516001600160a01b038116811461008857600080fd5b9392505050565b6103b68061009e6000396000f3fe6080604052600436106100595760003560e01c80633170777e1461014d5780633ccfd60b1461018a57806376cdb03b1461019f5780638199639e146101dc5780639e5faafc146101fc578063e5ca0acb1461020457600080fd5b3661014857600054600160009054906101000a90046001600160a01b03166001600160a01b031663a57497106040518163ffffffff1660e01b8152600401602060405180830381865afa1580156100b4573d6000803e3d6000fd5b505050506040513d601f19601f820116820180604052508101906100d8919061031e565b1061014657600160009054906101000a90046001600160a01b03166001600160a01b0316633ccfd60b6040518163ffffffff1660e01b8152600401600060405180830381600087803b15801561012d57600080fd5b505af1158015610141573d6000803e3d6000fd5b505050505b005b600080fd5b34801561015957600080fd5b50610146610168366004610337565b600180546001600160a01b0319166001600160a01b0392909216919091179055565b34801561019657600080fd5b50610146610228565b3480156101ab57600080fd5b506001546101bf906001600160a01b031681565b6040516001600160a01b0390911681526020015b60405180910390f35b3480156101e857600080fd5b506101466101f7366004610367565b600055565b610146610257565b34801561021057600080fd5b5061021a60005481565b6040519081526020016101d3565b60405133904780156108fc02916000818181858888f19350505050158015610254573d6000803e3d6000fd5b50565b600160009054906101000a90046001600160a01b03166001600160a01b031663d0e30db0346040518263ffffffff1660e01b81526004016000604051808303818588803b1580156102a757600080fd5b505af11580156102bb573d6000803e3d6000fd5b505060015460408051633ccfd60b60e01b815290516001600160a01b039092169450633ccfd60b9350600480820193506000929182900301818387803b15801561030457600080fd5b505af1158015610318573d6000803e3d6000fd5b50505050565b60006020828403121561033057600080fd5b5051919050565b60006020828403121561034957600080fd5b81356001600160a01b038116811461036057600080fd5b9392505050565b60006020828403121561037957600080fd5b503591905056fea2646970667358221220b2df04dd14e922a329a77d272f6d44f180a0ce0a8f2e0b3640e42d24f6c91fa864736f6c63430008120033",
  "linkReferences": {},
  "deployedLinkReferences": {}
}